{
  "_format": "hh-sol-artifact-1",
  "contractName": "BetHandler",
  "sourceName": "contracts/BetHandler.sol",
  "abi": [
    {
      "inputs": [],
      "stateMutability": "nonpayable",
      "type": "constructor"
    },
    {
      "anonymous": false,
      "inputs": [
        {
          "indexed": true,
          "internalType": "address",
          "name": "user",
          "type": "address"
        },
        {
          "indexed": false,
          "internalType": "uint256",
          "name": "amount",
          "type": "uint256"
        }
      ],
      "name": "Deposit",
      "type": "event"
    },
    {
      "anonymous": false,
      "inputs": [
        {
          "indexed": true,
          "internalType": "address",
          "name": "user",
          "type": "address"
        },
        {
          "indexed": false,
          "internalType": "uint256",
          "name": "amount",
          "type": "uint256"
        }
      ],
      "name": "PayoutBlackjack",
      "type": "event"
    },
    {
      "anonymous": false,
      "inputs": [
        {
          "indexed": true,
          "internalType": "address",
          "name": "user",
          "type": "address"
        },
        {
          "indexed": false,
          "internalType": "uint256",
          "name": "amount",
          "type": "uint256"
        }
      ],
      "name": "PayoutPush",
      "type": "event"
    },
    {
      "anonymous": false,
      "inputs": [
        {
          "indexed": true,
          "internalType": "address",
          "name": "user",
          "type": "address"
        },
        {
          "indexed": false,
          "internalType": "uint256",
          "name": "amount",
          "type": "uint256"
        }
      ],
      "name": "PayoutWin",
      "type": "event"
    },
    {
      "anonymous": false,
      "inputs": [
        {
          "indexed": true,
          "internalType": "address",
          "name": "user",
          "type": "address"
        },
        {
          "indexed": false,
          "internalType": "uint256",
          "name": "amount",
          "type": "uint256"
        }
      ],
      "name": "Withdrawal",
      "type": "event"
    },
    {
      "stateMutability": "payable",
      "type": "fallback"
    },
    {
      "inputs": [
        {
          "internalType": "address",
          "name": "",
          "type": "address"
        }
      ],
      "name": "balances",
      "outputs": [
        {
          "internalType": "uint256",
          "name": "",
          "type": "uint256"
        }
      ],
      "stateMutability": "view",
      "type": "function"
    },
    {
      "inputs": [],
      "name": "deposit",
      "outputs": [],
      "stateMutability": "payable",
      "type": "function"
    },
    {
      "inputs": [],
      "name": "owner",
      "outputs": [
        {
          "internalType": "address",
          "name": "",
          "type": "address"
        }
      ],
      "stateMutability": "view",
      "type": "function"
    },
    {
      "inputs": [
        {
          "internalType": "address",
          "name": "user",
          "type": "address"
        },
        {
          "internalType": "uint256",
          "name": "amount",
          "type": "uint256"
        }
      ],
      "name": "payoutBlackjack",
      "outputs": [],
      "stateMutability": "nonpayable",
      "type": "function"
    },
    {
      "inputs": [
        {
          "internalType": "address",
          "name": "user",
          "type": "address"
        },
        {
          "internalType": "uint256",
          "name": "amount",
          "type": "uint256"
        }
      ],
      "name": "payoutPush",
      "outputs": [],
      "stateMutability": "nonpayable",
      "type": "function"
    },
    {
      "inputs": [
        {
          "internalType": "address",
          "name": "user",
          "type": "address"
        },
        {
          "internalType": "uint256",
          "name": "amount",
          "type": "uint256"
        }
      ],
      "name": "payoutWin",
      "outputs": [],
      "stateMutability": "nonpayable",
      "type": "function"
    },
    {
      "inputs": [
        {
          "internalType": "uint256",
          "name": "amount",
          "type": "uint256"
        }
      ],
      "name": "withdraw",
      "outputs": [],
      "stateMutability": "nonpayable",
      "type": "function"
    },
    {
      "stateMutability": "payable",
      "type": "receive"
    }
  ],
  "bytecode": "0x6080604052348015600f57600080fd5b50600080546001600160a01b031916331790556107ef806100316000396000f3fe60806040526004361061006d5760003560e01c8063642141dc1161004b578063642141dc146100ef5780638da5cb5b1461010f578063d0e30db014610147578063fb5639ed1461014f57005b806327e235e31461006f5780632dce0d12146100af5780632e1a7d4d146100cf575b005b34801561007b57600080fd5b5061009c61008a36600461067a565b60016020526000908152604090205481565b6040519081526020015b60405180910390f35b3480156100bb57600080fd5b5061006d6100ca36600461069c565b61016f565b3480156100db57600080fd5b5061006d6100ea3660046106c6565b610285565b3480156100fb57600080fd5b5061006d61010a36600461069c565b61037e565b34801561011b57600080fd5b5060005461012f906001600160a01b031681565b6040516001600160a01b0390911681526020016100a6565b61006d6104a8565b34801561015b57600080fd5b5061006d61016a36600461069c565b61055d565b6000546001600160a01b031633146101a25760405162461bcd60e51b8152600401610199906106df565b60405180910390fd5b6001600160a01b0382166000908152600160205260409020548111156101da5760405162461bcd60e51b815260040161019990610707565b6001600160a01b03821660009081526001602052604081208054839290610202908490610754565b90915550506040516001600160a01b0383169082156108fc029083906000818181858888f1935050505015801561023d573d6000803e3d6000fd5b50816001600160a01b03167f71ab2f166dbe671ffe64f13abd79c5237c7562869d16bd42f2ff3d3ba913c4b18260405161027991815260200190565b60405180910390a25050565b6000546001600160a01b031633146102af5760405162461bcd60e51b8152600401610199906106df565b478111156102ff5760405162461bcd60e51b815260206004820152601d60248201527f496e73756666696369656e7420636f6e74726163742062616c616e63650000006044820152606401610199565b600080546040516001600160a01b039091169183156108fc02918491818181858888f19350505050158015610338573d6000803e3d6000fd5b506000546040518281526001600160a01b03909116907f7fcf532c15f0a6db0bd6d0e038bea71d30d808c7d98cb3bf7268a95bf5081b659060200160405180910390a250565b6000546001600160a01b031633146103a85760405162461bcd60e51b8152600401610199906106df565b600060026103b783600361076d565b6103c19190610784565b6001600160a01b0384166000908152600160205260409020549091508111156103fc5760405162461bcd60e51b815260040161019990610707565b6001600160a01b03831660009081526001602052604081208054839290610424908490610754565b90915550506040516001600160a01b0384169082156108fc029083906000818181858888f1935050505015801561045f573d6000803e3d6000fd5b50826001600160a01b03167f122a159223aca58e7365344e579a6444083dca2e4cd129093649dc44c28255a08260405161049b91815260200190565b60405180910390a2505050565b600034116105025760405162461bcd60e51b815260206004820152602160248201527f4465706f736974206d7573742062652067726561746572207468616e207a65726044820152606f60f81b6064820152608401610199565b33600090815260016020526040812080543492906105219084906107a6565b909155505060405134815233907fe1fffcc4923d04b559f4d29a8bfc6cda04eb5b0d3c460751c2402c5c5cc9109c9060200160405180910390a2565b6000546001600160a01b031633146105875760405162461bcd60e51b8152600401610199906106df565b6001600160a01b0382166000908152600160205260409020548111156105bf5760405162461bcd60e51b815260040161019990610707565b6001600160a01b038216600090815260016020526040812080548392906105e7908490610754565b90915550506040516001600160a01b0383169082156108fc029083906000818181858888f19350505050158015610622573d6000803e3d6000fd5b50816001600160a01b03167fdd0b541e6f1ed9714b789821afb63515c2ebc880eceb9c6e9eb35a1e46d452d68260405161027991815260200190565b80356001600160a01b038116811461067557600080fd5b919050565b60006020828403121561068c57600080fd5b6106958261065e565b9392505050565b600080604083850312156106af57600080fd5b6106b88361065e565b946020939093013593505050565b6000602082840312156106d857600080fd5b5035919050565b6020808252600e908201526d139bdd08185d5d1a1bdc9a5e995960921b604082015260600190565b60208082526019908201527f496e73756666696369656e7420757365722062616c616e636500000000000000604082015260600190565b634e487b7160e01b600052601160045260246000fd5b818103818111156107675761076761073e565b92915050565b80820281158282048414176107675761076761073e565b6000826107a157634e487b7160e01b600052601260045260246000fd5b500490565b808201808211156107675761076761073e56fea2646970667358221220bb8854440765fcd363f28d3e71e7d0b5988579fdbdecd1fdee1ceddca812054664736f6c634300081c0033",
  "linkReferences": {},
  "deployedLinkReferences": {}
}